{
  "priv1": "0000000000000000000000000000000000000000000000000000000000000001",
  "mnemonic": "abandon abandon abandon abandon abandon abandon abandon abandon abandon abandon abandon about",
  "message": "refactor me",
  "psbt": {
    "sample": "cHNidP8BAHUCAAAAASaBcTce3/KF6Tet7qSze3gADAVmy7OtZGQXE8pCFxv2AAAAAAD+////AtPf9QUAAAAAGXapFNDFmQPFusKGh2DpD9UhpGZap2UgiKwA4fUFAAAAABepFDVF5uM7gyxHBQ8k0+65PJwDlIvHh7MuEwAAAQD9pQEBAAAAAAECiaPHHqtNIOA3G7ukzGmPopXJRjr6Ljl/hTPMti+VZ+UBAAAAFxYAFL4Y0VKpsBIDna89p95PUzSe7LmF/////4b4qkOnHf8USIk6UwpyN+9rRgi7st0tAXHmOuxqSJC0AQAAABcWABT+Pp7xp0XpdNkCxDVZQ6vLNL1TU/////8CAMLrCwAAAAAZdqkUhc/xCX/Z4Ai7NK9wnGIZeziXikiIrHL++E4sAAAAF6kUM5cluiHv1irHU6m80GfWx6ajnQWHAkcwRAIgJxK+IuAnDzlPVoMR3HyppolwuAJf3TskAinwf4pfOiQCIAGLONfc0xTnNMkna9b7QPZzMlvEuqFEyADS8vAtsnZcASED0uFWdJQbrUqZY3LLh+GFbTZSYG2YVi/jnF6efkE/IQUCSDBFAiEA0SuFLYXc2WHS9fSrZgZU327tzHlMDDPOXMMJ/7X85Y0CIGczio4OFyXBl/saiK9Z9R5E5CVbIBZ8hoQDHAXR8lkqASECI7cr7vCWXRC+B3jv7NYfysb3mk6haTkzgHNEZPhPKrMAAAAAAAAA",
    "sampleHex": "70736274ff0100750200000001268171371edff285e937adeea4b37b78000c0566cbb3ad64641713ca42171bf60000000000feffffff02d3dff505000000001976a914d0c59903c5bac2868760e90fd521a4665aa7652088ac00e1f5050000000017a9143545e6e33b832c47050f24d3eeb93c9c03948bc787b32e1300000100fda5010100000000010289a3c71eab4d20e0371bbba4cc698fa295c9463afa2e397f8533ccb62f9567e50100000017160014be18d152a9b012039daf3da7de4f53349eecb985ffffffff86f8aa43a71dff1448893a530a7237ef6b4608bbb2dd2d0171e63aec6a4890b40100000017160014fe3e9ef1a745e974d902c4355943abcb34bd5353ffffffff0200c2eb0b000000001976a91485cff1097fd9e008bb34af709c62197b38978a4888ac72fef84e2c00000017a914339725ba21efd62ac753a9bcd067d6c7a6a39d05870247304402202712be22e0270f394f568311dc7ca9a68970b8025fdd3b240229f07f8a5f3a240220018b38d7dcd314e734c9276bd6fb40f673325bc4baa144c800d2f2f02db2765c012103d2e15674941bad4a996372cb87e1856d3652606d98562fe39c5e9e7e413f210502483045022100d12b852d85dcd961d2f5f4ab660654df6eedcc794c0c33ce5cc309ffb5fce58d022067338a8e0e1725c197fb1a88af59f51e44e4255b20167c8684031c05d1f2592a01210223b72beef0965d10be0778efecd61fcac6f79a4ea169393380734464f84f2ab300000000000000",
    "unsignedTxid": "af2cac1e0e33d896d9d0751d66fcb2fa54b737c7a13199281fb57e4f497bb652",
    "fee": 301,
    "prevTxid": "f61b1742ca13176464adb3cb66050c00787bb3a4eead37e985f2df1e37718126",
    "locktime1000B64": "cHNidP8BAHUCAAAAASaBcTce3/KF6Tet7qSze3gADAVmy7OtZGQXE8pCFxv2AAAAAAD+////AtPf9QUAAAAAGXapFNDFmQPFusKGh2DpD9UhpGZap2UgiKwA4fUFAAAAABepFDVF5uM7gyxHBQ8k0+65PJwDlIvHh+gDAAAAAQD9pQEBAAAAAAECiaPHHqtNIOA3G7ukzGmPopXJRjr6Ljl/hTPMti+VZ+UBAAAAFxYAFL4Y0VKpsBIDna89p95PUzSe7LmF/////4b4qkOnHf8USIk6UwpyN+9rRgi7st0tAXHmOuxqSJC0AQAAABcWABT+Pp7xp0XpdNkCxDVZQ6vLNL1TU/////8CAMLrCwAAAAAZdqkUhc/xCX/Z4Ai7NK9wnGIZeziXikiIrHL++E4sAAAAF6kUM5cluiHv1irHU6m80GfWx6ajnQWHAkcwRAIgJxK+IuAnDzlPVoMR3HyppolwuAJf3TskAinwf4pfOiQCIAGLONfc0xTnNMkna9b7QPZzMlvEuqFEyADS8vAtsnZcASED0uFWdJQbrUqZY3LLh+GFbTZSYG2YVi/jnF6efkE/IQUCSDBFAiEA0SuFLYXc2WHS9fSrZgZU327tzHlMDDPOXMMJ/7X85Y0CIGczio4OFyXBl/saiK9Z9R5E5CVbIBZ8hoQDHAXR8lkqASECI7cr7vCWXRC+B3jv7NYfysb3mk6haTkzgHNEZPhPKrMAAAAAAAAA",
    "msgHelloB64": "cHNidP8BAHUCAAAAASaBcTce3/KF6Tet7qSze3gADAVmy7OtZGQXE8pCFxv2AAAAAAD+////AtPf9QUAAAAAGXapFNDFmQPFusKGh2DpD9UhpGZap2UgiKwA4fUFAAAAABepFDVF5uM7gyxHBQ8k0+65PJwDlIvHh7MuEwABCQVoZWxsbwABAP2lAQEAAAAAAQKJo8ceq00g4Dcbu6TMaY+ilclGOvouOX+FM8y2L5Vn5QEAAAAXFgAUvhjRUqmwEgOdrz2n3k9TNJ7suYX/////hviqQ6cd/xRIiTpTCnI372tGCLuy3S0BceY67GpIkLQBAAAAFxYAFP4+nvGnRel02QLENVlDq8s0vVNT/////wIAwusLAAAAABl2qRSFz/EJf9ngCLs0r3CcYhl7OJeKSIiscv74TiwAAAAXqRQzlyW6Ie/WKsdTqbzQZ9bHpqOdBYcCRzBEAiAnEr4i4CcPOU9WgxHcfKmmiXC4Al/dOyQCKfB/il86JAIgAYs419zTFOc0ySdr1vtA9nMyW8S6oUTIANLy8C2ydlwBIQPS4VZ0lButSpljcsuH4YVtNlJgbZhWL+OcXp5+QT8hBQJIMEUCIQDRK4UthdzZYdL19KtmBlTfbu3MeUwMM85cwwn/tfzljQIgZzOKjg4XJcGX+xqIr1n1HkTkJVsgFnyGhAMcBdHyWSoBIQIjtyvu8JZdEL4HeO/s1h/KxveaTqFpOTOAc0Rk+E8qswAAAAAAAAA=",
    "completeB64": "cHNidP8BAD0CAAAAAQAAAAAAAAAAAAAAAAAAAAAAAAAAAAAAAAAAAAAAAAAAAAAAAAD/////AegDAAAAAAAAAWoAAAAAAAEHFxYAFBERERERERERERERERERERERERERAAA=",
    "extractedHex": "0200000001000000000000000000000000000000000000000000000000000000000000000000000000171600141111111111111111111111111111111111111111ffffffff01e803000000000000016a00000000"
  },
  "bip322": {
    "wif": "KwDiBf89QgGbjEhKnhXJuH7LrciVrZi3qYjgd9M7rFU73sVHnoWn",
    "p2wpkhAddr": "bc1qw508d6qejxtdg4y5r3zarvary0c5xw7kv8f3t4",
    "p2wpkhSig": "smpAkgwRQIhALf/kZ+Axt6NovL56OGlZ03TSEDQmUZB04frmBbdP+OfAiBpcu648R7WczxgRqlUFSXl/Vm+/7enlFU4RaPID4Wg5wEhAnm+Zn753LusVaBilc6HCwcCm/zbLc4o2VnygVsW+BeY",
    "p2trAddr": "bc1pmfr3p9j00pfxjh0zmgp99y8zftmd3s5pmedqhyptwy6lm87hf5sspknck9",
    "p2trSig": "smpAUDH2/IV9cYMPdl3ST8ifQcyPAUkSsGn/mYJJqHK1ae00i9TKOo/nAAq86uUXhUWIQhIJoagU3Q8I6t//WSaUlcA"
  },
  "descriptors": {
    "wpkhBody": "wpkh([e81a5744/48'/0'/0'/2']xpub6Duv8Gj9gZeA3sUo5nUMPEv6FZ81GHn3feyaUej5KqcjPKsYLww4xBX4MmYZUPX5NqzaVJWYdYZwGLECtgQruG4FkZMh566RkfUT2pbzsEg/<0;1>/*)",
    "wpkhCanonical": "wpkh([e81a5744/48'/0'/0'/2']xpub6Duv8Gj9gZeA3sUo5nUMPEv6FZ81GHn3feyaUej5KqcjPKsYLww4xBX4MmYZUPX5NqzaVJWYdYZwGLECtgQruG4FkZMh566RkfUT2pbzsEg/<0;1>/*)#atg439lg",
    "wpkhChecksum": "atg439lg",
    "addr": {
      "mainnet00": "bc1qurlpuqdt7stpgyhjjlx0998k7pgj8tfpu9xjzl",
      "mainnet01": "bc1q4fm5avd2qxzk9qtgqgwmmfesm4u9j5e4rukxq7",
      "mainnet02": "bc1qreg9supl03wk45zf5kpdhptegk06s4jm7nvren",
      "mainnetChange0": "bc1qp5j4qm59ahcv4ycsvddkzax80x3ps2nem6z8pd",
      "regtest00": "bcrt1qurlpuqdt7stpgyhjjlx0998k7pgj8tfp52yvw9"
    },
    "trBody": "tr([e81a5744/48'/0'/0'/2']xpub6Duv8Gj9gZeA3sUo5nUMPEv6FZ81GHn3feyaUej5KqcjPKsYLww4xBX4MmYZUPX5NqzaVJWYdYZwGLECtgQruG4FkZMh566RkfUT2pbzsEg/<0;1>/*)",
    "trMainnet00": "bc1p4kj4p4svdskukwg8ccz9fu3ycaseffvya79yz2fpz6dxuctzq82q0sxfsr"
  },
  "hdWallet": {
    "rootXprv": "xprv9s21ZrQH143K3GJpoapnV8SFfukcVBSfeCficPSGfubmSFDxo1kuHnLisriDvSnRRuL2Qrg5ggqHKNVpxR86QEC8w35uxmGoggxtQTPvfUu",
    "bip44Addr": "1LqBGSKuX5yYUonjxT5qGfpUsXKYYWeabA",
    "bip84Addr": "bc1qcr8te4kr609gcawutmrza0j4xv80jy8z306fyu",
    "accountXpub44": "xpub6BosfCnifzxcFwrSzQiqu2DBVTshkCXacvNsWGYJVVhhawA7d4R5WSWGFNbi8Aw6ZRc1brxMyWMzG3DSSSSoekkudhUd9yLb6qx39T9nMdj"
  },
  "ecc": {
    "wif": "KwDiBf89QgGbjEhKnhXJuH7LrciVrZi3qYjgd9M7rFU73sVHnoWn",
    "pubKey": "0279be667ef9dcbbac55a06295ce870b07029bfcdb2dce28d959f2815b16f81798",
    "p2pkhAddr": "1BgGZ9tcN4rm9KBzDn7KprQz87SZ26SAMH",
    "p2wpkhAddr": "bc1qw508d6qejxtdg4y5r3zarvary0c5xw7kv8f3t4",
    "msgHash": "a0353d6668fd96c1dcdfe16ff185c4e763cfabffa7e07cb23b0cb635f9b644ca",
    "derSig": "3044022100f0bb8e998d87c821fa8eed8a4c867de2c9a3202bc3be4a7c3060011f06ba39e9021f32e5f0437c965aeb4b8403839b988d67236dea89b6568b1538cb2406d8714501"
  },
  "schnorr": {
    "xOnlyPub": "79be667ef9dcbbac55a06295ce870b07029bfcdb2dce28d959f2815b16f81798",
    "sig": "6cc649b497c87e0577cfbdcae17000cc19d9bb2a7da59774018cea1532fdbf9ef760d180700205f1873e72c8c93d2f4bce4cb67979eacc3c425b4fcde5cee011",
    "msgHash": "a0353d6668fd96c1dcdfe16ff185c4e763cfabffa7e07cb23b0cb635f9b644ca"
  },
  "shamir": {
    "secret": "correct horse battery staple",
    "shares": [
      "80180075c1b82b24c012358bff6bcaa3a11afbc9623c5587f662b2ce9149ba64849",
      "8021d0eb835bcc80e94e915ff91ddf8e2b7ec0597e50b2c515add385ab488c1243d",
      "8039d09e42f5d1530e7af2e3447093daad5269963a7ba004b4e8f34c0d472170011"
    ]
  },
  "musig": {
    "priv1": "0000000000000000000000000000000000000000000000000000000000000001",
    "priv2": "0000000000000000000000000000000000000000000000000000000000000002",
    "combinedPubKey": "af4aa89f066a52102208aac57b604499da3c707fc26bc12d04bec040c2a87665"
  },
  "encoding": {
    "hexIn": "deadbeef",
    "base64Out": "3q2+7w==",
    "scidHuman": "812642:1220:1",
    "scidUint64": "893509328299098113"
  },
  "txCreator": {
    "wif": "cMahea7zqjxrtgAbB7LSGbcQUr1uX1ojuat9jZodMN87JcbXMTcA",
    "addr": "mrCDrCybB6J1vRfbwM5hemdJz73FwDBC8r",
    "inputTxId": "1111111111111111111111111111111111111111111111111111111111111111",
    "inputAmount": "100000",
    "outputAmount": "90000",
    "rawHex": "02000000011111111111111111111111111111111111111111111111111111111111111111000000006b483045022100aa06b8e6ce86e1c41224bd8cf1d6fdba92721c96d4b7f8edc02b170848e1e744022030959b575f47d55690c6e1d6681b7fdef9dee61c7f325977184f679df21212e101210279be667ef9dcbbac55a06295ce870b07029bfcdb2dce28d959f2815b16f81798ffffffff02905f0100000000001976a914751e76e8199196d454941c45d1b3a323f1433bd688ac0000000000000000160014751e76e8199196d454941c45d1b3a323f1433bd600000000",
    "txid": "e5c46d076022a3bc251b35b9db29af48c0b7cfbcb32acfee90d496487a7d7683"
  },
  "block": {
    "hash": "39754aa98d92ba82dcd0eabdadc6ef71403f1817a6bbcfdca70a2e6f4a6e5f79",
    "merkleRoot": "566aa24211a19fd286a1509f1cefaf2fcd95366dbbdde13457d063568bed69f5",
    "txids": [
      "51a3a8c1fd4bf465663173dfac659b1b69efd4ffbe1fe2bca3a9443bbd8b83ba",
      "19f078b8bfe0d75f39571ae98c2caa9fe8bb27d27ce9013ee4a4aef5e6a2bbb4"
    ],
    "nonce": 42
  }
}
